:100000000C942A000C9447000C9447000C94470071
:100010000C9447000C9447000C9447000C94470044
:100020000C9447000C9447000C947E050C945505E5
:100030000C9447000C9447000C9447000C94470024
:100040000C94F4030C9447000C9447000C94470064
:100050000C94470011241FBECFE5D8E0DEBFCDBF12
:1000600011E0A0E6B0E0ECEBFBE002C005900D92E1
:10007000A231B107D9F721E0A2E1B1E001C01D92A0
:10008000AD31B207E1F70E94ED030C94DC050C944E
:10009000000080911A01813009F58091140190913E
:1000A000150101969093150180931401809114011C
:1000B00090911501883B910599F40E94410581E0DA
:1000C0008093130110921501109214010E94CD0328
:1000D00083E00E94AD031092120102C00E9441050C
:1000E00088B7816088BF089510921A011092130199
:1000F0001092120160E080E00E943C0380E690E0F4
:100100000E94250383E00E94CD0381E00E94CD037D
:10011000089581E080931A0160E080E00E943C0332
:1001200088E690E00E9425038091130181110FC0A1
:1001300081E00E94AD0383E00E94CD038091120113
:10014000811105C00E943A0581E080931201089553
:1001500082E080931A01109213011092120160E064
:1001600080E00E943C0381E790E00E94250383E049
:100170000E94CD0381E00E94CD030895CF93DF93C9
:1001800000D0CDB7DEB787E0898381E08A830E9403
:10019000A003CE0101960E940E040E943D020F9022
:1001A0000F90DF91CF910895CF93DF9300D0CDB71B
:1001B000DEB71A8219820E94BE000E94290589E4D6
:1001C00090E00E944B058BE10E9445050E94470587
:1001D0000E94250560E081E00E943C038AE790E0F0
:1001E0000E942503BE016F5F7F4F80E00E942C04B8
:1001F00067E081E00E943C0389819A810E944F035D
:1002000085E690E00E94250389819A8182339105D9
:1002100018F40E94740008C08436910518F40E94F6
:10022000890002C00E94A80060E083E00E943C03B5
:100230008091130190E00E944F03D4CF2FEF83ED04
:1002400090E3215080409040E1F700C000000E9400
:1002500038030E943D0260E080E00E943C0381E898
:1002600090E00E9425030E94380360E080E00E9435
:100270003C0383E990E00E94250360E081E00E9456
:100280003C0388EA90E00E94250360E082E00E943F
:100290003C038CEB90E00E94250360E083E00E9429
:1002A0003C0380ED90E00E9425032FEF83ED90E367
:1002B000215080409040E1F700C000000E943803C8
:1002C00060E081E00E943C0384EE90E00E94250300
:1002D0002FEF8BE792E9215080409040E1F700C07A
:1002E00000000E94380363E081E00E943C0389EF34
:1002F00090E00E9425032FEF87EA91E6215080408D
:100300009040E1F700C000000E94380362E081E005
:100310000E943C0384E091E00E9425032FEF83EDCF
:1003200090E3215080409040E1F700C00000089524
:10033000CF93C82F40E063E080E00E94B2048FE9D1
:100340009FE00197F1F700C0000041E062E080E02B
:100350000E94B2048FE99FE00197F1F700C000000E
:100360004C2F407150E055954795559547955595BB
:1003700047955595479560E081E00E94B2044C2F67
:10038000407250E055954795559547955595479539
:10039000559547955595479561E081E00E94B204D7
:1003A0004C2F407450E0042E452F000C441F550B79
:1003B000000C441F551F62E081E00E94B2044C2FE4
:1003C000441F4427441F64E081E00E94B2048FE987
:1003D0009FE00197F1F700C0000040E062E080E09C
:1003E0000E94B2048FE99FE00197F1F700C000007E
:1003F00041E062E080E00E94B2048FE99FE0019753
:10040000F1F700C000004C2F417060E081E00E94D5
:10041000B2044C2F427050E05595479561E081E061
:100420000E94B2044C2F447050E055954795559565
:10043000479562E081E00E94B204C8704C2F50E002
:1004400055954795559547955595479564E081E0B5
:100450000E94B2048FE99FE00197F1F700C000000D
:1004600040E062E080E00E94B2048FE99FE00197E3
:10047000F1F700C00000CF91089541E062E080E014
:100480000E943F0441E063E080E00E943F042FEFC0
:1004900089EF90E0215080409040E1F700C00000DB
:1004A00041E060E081E00E943F0441E061E081E0E2
:1004B0000E943F0441E062E081E00E943F0441E08D
:1004C00064E081E00E943F0483E30E94980182E39C
:1004D0000E94980188E20E94980181E00E949801A0
:1004E0008CE00E9498018FE39CE90197F1F700C02E
:1004F00000008CE00E94980181E00E94980108951C
:10050000CF93C82F41E063E080E00E94B2048FE9FE
:100510009FE00197F1F700C0000041E062E080E059
:100520000E94B2048FE99FE00197F1F700C000003C
:100530004C2F407150E055954795559547955595E9
:1005400047955595479560E081E00E94B2044C2F95
:10055000407250E055954795559547955595479567
:10056000559547955595479561E081E00E94B20405
:100570004C2F407450E0042E452F000C441F550BA7
:10058000000C441F551F62E081E00E94B2044C2F12
:10059000441F4427441F64E081E00E94B2048FE9B5
:1005A0009FE00197F1F700C0000040E062E080E0CA
:1005B0000E94B2048FE99FE00197F1F700C00000AC
:1005C00041E062E080E00E94B2048FE99FE0019781
:1005D000F1F700C000004C2F417060E081E00E9404
:1005E000B2044C2F427050E05595479561E081E090
:1005F0000E94B2044C2F447050E055954795559594
:10060000479562E081E00E94B204C8704C2F50E030
:1006100055954795559547955595479564E081E0E3
:100620000E94B2048FE99FE00197F1F700C000003B
:1006300040E062E080E00E94B2048FE99FE0019711
:10064000F1F700C00000CF9108950F931F93CF934F
:100650008C01C0E003C00E948002CF5FF801EC0F64
:10066000F11D80818111F7CFCF911F910F910895D6
:1006700081E00E9498010895813039F058F082306D
:1006800031F0833031F060E005C0605C03C06C5E27
:1006900001C06C5A862F80680E9498010895CF93FC
:1006A000DF93CDB7DEB760970FB6F894DEBF0FBE0D
:1006B000CDBF4AE0BE016F5F7F4F0E94A705CE010C
:1006C00001960E94250360960FB6F894DEBF0FBE18
:1006D000CDBFDF91CF910895813089F028F082302D
:1006E000C9F0833011F1089541E065E080E00E9497
:1006F0003F0440E065E080E00E94B204089541E0DC
:1007000067E081E00E943F0440E067E081E00E94F2
:10071000B204089541E066E080E00E943F0440E0BA
:1007200066E080E00E94B204089541E064E080E069
:100730000E943F0440E064E080E00E94B20408951B
:1007400080E00E946C0381E00E946C0382E00E94C2
:100750006C0383E00E946C030895813061F028F0FF
:10076000823079F0833099F0089541E065E080E0CF
:100770000E94B204089541E067E081E00E94B20463
:10078000089541E066E080E00E94B204089541E0EF
:1007900064E080E00E94B2040895813061F028F0A6
:1007A000823079F0833099F0089540E065E080E090
:1007B0000E94B204089540E067E081E00E94B20424
:1007C000089540E066E080E00E94B204089540E0B1
:1007D00064E080E00E94B20408950E941E010E941D
:1007E000D40080E090E008951F920F920FB60F9210
:1007F00011248F939F93EF93FF93E0911B01F0914E
:100800001C0184B195B191838083FF91EF919F91F9
:100810008F910F900FBE0F901F901895FC01918142
:10082000308186B1806886B986B1877F86B927B165
:1008300040E4949FC0011124922F9F73892B87B9A4
:100840008FEF830F873030F486B1887F382B36B92D
:1008500081E0089580E0089570931C0160931B016E
:1008600097B1907E892B87B986B1886086B98FB79A
:1008700080688FBF86B1806486B981E00895843036
:1008800008F06FC0683008F06CC0813001F130F0C2
:100890008230B1F1833009F44CC00895413059F4ED
:1008A0002AB381E090E002C0880F991F6A95E2F7B1
:1008B000822B8ABB08952AB381E090E002C0880FA2
:1008C000991F6A95E2F7809582238ABB089541308B
:1008D00059F427B381E090E002C0880F991F6A9510
:1008E000E2F7822B87BB089527B381E090E002C036
:1008F000880F991F6A95E2F78095822387BB089538
:10090000413059F424B381E090E002C0880F991F70
:100910006A95E2F7822B84BB089524B381E090E0CE
:1009200002C0880F991F6A95E2F78095822384BBE5
:100930000895413059F421B381E090E002C0880F5E
:10094000991F6A95E2F7822B81BB089521B381E05C
:1009500090E002C0880F991F6A95E2F78095822384
:1009600081BB0895843008F06FC0683008F06CC017
:10097000813001F130F08230B1F1833009F44CC0A4
:100980000895413059F42BB381E090E002C0880F04
:10099000991F6A95E2F7822B8BBB08952BB381E0F8
:1009A00090E002C0880F991F6A95E2F78095822334
:1009B0008BBB0895413059F428B381E090E002C028
:1009C000880F991F6A95E2F7822B88BB089528B398
:1009D00081E090E002C0880F991F6A95E2F7809548
:1009E000822388BB0895413059F425B381E090E01B
:1009F00002C0880F991F6A95E2F7822B85BB089584
:100A000025B381E090E002C0880F991F6A95E2F754
:100A10008095822385BB0895413059F422B381E04B
:100A200090E002C0880F991F6A95E2F7822B82BB83
:100A3000089522B381E090E002C0880F991F6A9563
:100A4000E2F78095822382BB08958FB780688FBFBD
:100A5000089583B7877B83BF83B783BF83B78F7CBA
:100A600083BF83B783BF89B7816089BF89B78D7F13
:100A700089BF089583B7887F83BF83B7856083BFAD
:100A8000089583B7887F83BF089582BF089589B78B
:100A9000816089BF0895009731F090931901809388
:100AA000180181E0089580E008951F920F920FB61B
:100AB0000F9211242F933F934F935F936F937F93E4
:100AC0008F939F93AF93BF93EF93FF93E0911801A0
:100AD000F0911901309709F00995FF91EF91BF91BD
:100AE000AF919F918F917F916F915F914F913F91C6
:100AF0002F910F900FBE0F901F9018951F920F927D
:100B00000FB60F9211242F933F934F935F936F93E0
:100B10007F938F939F93AF93BF93EF93FF93E09156
:100B20001601F0911701309709F00995FF91EF91A7
:100B3000BF91AF919F918F917F916F915F914F91F5
:100B40003F912F910F900FBE0F901F901895BB27CC
:100B50004A3031F4992322F4BDE2909581959F4F5C
:100B60000C94B305BB27FB015527AA27880F991FB3
:100B7000AA1FA41710F0A41B83955051B9F7A05DCC
:100B8000AA3308F0A95DA193009779F7B111B19349
:100B90001192CB010C94CC05DC01FC01672F719103
:100BA0007723E1F7329704C07C916D937083629153
:0C0BB000AE17BF07C8F30895F894FFCFFC
:100BBC004F464620202020005245414459202020F9
:100BCC000049474E4954494F4E00414443203D2073
:100BDC0000202020205465616D204D6574615761A3
:100BEC007265004D61686D6F75642048656C6D7938
:100BFC0020283132383529004D61726B20456861EF
:100C0C006220202020202832303129004D6F68616D
:100C1C006D6564204D61736F756428323030290026
:100C2C00596F75736566204B68616C656420283557
:100C3C003538290048617A7A656D204D6F68616D91
:100C4C0065642831323937290057656C636F6D65DF
:100C5C002E2E2E00537461727420456E67696E657A
:020C6C00000086
:00000001FF
