S01A00004B4C454D4D455F31355F4D455441574152452E73726563D5
S11300000C942A000C9447000C9447000C9447006D
S11300100C9447000C9447000C9447000C94470040
S11300200C9447000C9447000C94EE050C94C50501
S11300300C9447000C9447000C9447000C94470020
S11300400C9460040C9447000C9447000C944700F3
S11300500C94470011241FBECFE5D8E0DEBFCDBF0E
S113006011E0A0E6B0E0ECE9FCE002C005900D92DE
S1130070A439B107D9F721E0A4E9B1E001C01D9288
S1130080AF39B207E1F70E945D040C944C060C945E
S1130090000080919C01813009F580919601909136
S11300A09701019690939701809396018091960110
S11300B090919701883B910599F40E94AD0581E0E8
S11300C080939501109294011092970110929601D9
S11300D00E943D0483E00E941D0402C00E94AD05FD
S11300E00E94C105089510929C01109295011092EE
S11300F0940160E081E00E94A60380E690E00E9403
S11301008F0383E00E943D0481E00E943D0460E08F
S113011083E00E94A60388E690E00E948F0308957E
S113012081E080939C0160E00E94A6038AE790E04E
S11301300E948F0380919501811118C081E00E9473
S11301401D0483E00E943D0460E083E00E94A60356
S113015083E890E00E948F038091940181110EC086
S11301600E94A60581E080939401089560E083E0F5
S11301700E94A60385E990E00E948F03089582E01F
S113018080939C01109295011092940160E081E0AB
S11301900E94A60387EA90E00E948F0383E00E94F6
S11301A03D0481E00E943D0460E083E00E94A603D8
S11301B088E690E00E948F030895CF93DF9300D0E8
S11301C0CDB7DEB787E0898381E08A830E9410047B
S11301D0CE0101960E947A040E94A7020F900F900C
S11301E0DF91CF9108952FEF83ED90E3215080406C
S11301F09040E1F700C000000E94A2030E94A70201
S113020060E081E00E94A60380EB90E00E948F03EF
S11302102FEF80E792E0215080409040E1F700C04A
S113022000000E94A20360E081E00E94A60382EC29
S113023090E00E948F032FEF80E792E021508040EE
S11302409040E1F700C000000E94A20360E081E05A
S11302500E94A60380EB90E00E948F032FEF87EAB1
S113026091E6215080409040E1F700C000000E94D8
S1130270A20360E080E00E94A60384ED90E00E9467
S11302808F0360E081E00E94A60389EE90E00E9463
S11302908F0360E082E00E94A6038DEF90E00E944D
S11302A08F0360E083E00E94A60381E191E00E9455
S11302B08F032FEF83ED90E3215080409040E1F7CE
S11302C000C000000E94A20360E081E00E94A60337
S11302D085E291E00E948F032FEF8BE792E9215092
S11302E080409040E1F700C000000E94A20360E05B
S11302F080E00E94A6038AE391E00E948F0360E0FD
S113030081E00E94A6038DE491E00E948F032FEF09
S11303108BE792E9215080409040E1F700C0000053
S11303200E94A20363E081E00E94A6038EE591E0AF
S11303300E948F032FEF87EA91E62150804090407E
S1130340E1F700C000000E94A20362E081E00E9485
S1130350A60389E691E00E948F032FEF83ED90E3DB
S1130360215080409040E1F700C000000895CF93F1
S1130370DF9300D0CDB7DEB71A8219820E94F30052
S11303800E94DD000E94950589E490E00E94B70573
S11303908BE10E94B1050E94B3050E94910560E0C3
S11303A080E00E94A60386E791E00E948F0360E04C
S11303B082E00E94A60384E891E00E948F03BE01BC
S11303C06F5F7F4F80E00E9498046FE082E00E949C
S11303D0A60389819A810E94BF0385E690E00E946A
S11303E08F0389819A818233910518F40E947300E6
S11303F0E6CF8436910518F40E949000E0CF0E9465
S1130400BF00DDCFCF93C82F40E063E080E00E94BF
S11304101E058FE99FE00197F1F700C0000041E05D
S113042062E080E00E941E058FE99FE00197F1F7EA
S113043000C000004C2F407150E0559547955595EC
S11304404795559547955595479560E081E00E94FD
S11304501E054C2F407250E055954795559547958C
S113046055954795559547955595479561E081E094
S11304700E941E054C2F407450E0042E452F000CA2
S1130480441F550B000C441F551F62E081E00E947D
S11304901E054C2F441F4427441F64E081E00E9442
S11304A01E058FE99FE00197F1F700C0000040E0CE
S11304B062E080E00E941E058FE99FE00197F1F75A
S11304C000C0000041E062E080E00E941E058FE968
S11304D09FE00197F1F700C000004C2F417060E0ED
S11304E081E00E941E054C2F427050E055954795BF
S11304F061E081E00E941E054C2F447050E0559548
S113050047955595479562E081E00E941E05C870A5
S11305104C2F50E0559547955595479555954795DA
S113052064E081E00E941E058FE99FE00197F1F7E6
S113053000C0000040E062E080E00E941E058FE9F8
S11305409FE00197F1F700C00000CF91089541E0CA
S113055062E080E00E94AB0441E063E080E00E943E
S1130560AB042FEF89EF90E0215080409040E1F7F9
S113057000C0000041E060E081E00E94AB0441E083
S113058061E081E00E94AB0441E062E081E00E940E
S1130590AB0441E064E081E00E94AB0483E30E9489
S11305A0020282E30E94020288E20E94020281E0C7
S11305B00E9402028CE00E9402028FE39CE90197F0
S11305C0F1F700C000008CE00E94020281E00E946A
S11305D002020895CF93C82F41E063E080E00E94B7
S11305E01E058FE99FE00197F1F700C0000041E08C
S11305F062E080E00E941E058FE99FE00197F1F719
S113060000C000004C2F407150E05595479555951A
S11306104795559547955595479560E081E00E942B
S11306201E054C2F407250E05595479555954795BA
S113063055954795559547955595479561E081E0C2
S11306400E941E054C2F407450E0042E452F000CD0
S1130650441F550B000C441F551F62E081E00E94AB
S11306601E054C2F441F4427441F64E081E00E9470
S11306701E058FE99FE00197F1F700C0000040E0FC
S113068062E080E00E941E058FE99FE00197F1F788
S113069000C0000041E062E080E00E941E058FE996
S11306A09FE00197F1F700C000004C2F417060E01B
S11306B081E00E941E054C2F427050E055954795ED
S11306C061E081E00E941E054C2F447050E0559576
S11306D047955595479562E081E00E941E05C870D4
S11306E04C2F50E055954795559547955595479509
S11306F064E081E00E941E058FE99FE00197F1F715
S113070000C0000040E062E080E00E941E058FE926
S11307109FE00197F1F700C00000CF9108950F9377
S11307201F93CF938C01C0E003C00E94EA02CF5F05
S1130730F801EC0FF11D80818111F7CFCF911F914A
S11307400F91089581E00E9402020895813049F0DA
S113075028F0823049F0833051F00CC080E8860FD5
S11307600AC080EC860F07C084E9860F04C084EDBC
S1130770860F01C080E080680E9402020895CF9332
S1130780DF93CDB7DEB760970FB6F894DEBF0FBE28
S1130790CDBF4AE0BE016F5F7F4F0E941706CE01B6
S11307A001960E948F0360960FB6F894DEBF0FBEC9
S11307B0CDBFDF91CF910895813089F028F0823048
S11307C0C9F0833011F1089541E065E080E00E94B2
S11307D0AB0440E065E080E00E941E05089541E01E
S11307E067E081E00E94AB0440E067E081E00E94A2
S11307F01E05089541E066E080E00E94AB0440E0FD
S113080066E080E00E941E05089541E064E080E017
S11308100E94AB0440E064E080E00E941E0508955D
S113082080E00E94DC0381E00E94DC0382E00E94FD
S1130830DC0383E00E94DC030895813061F028F03A
S1130840823079F0833099F0089541E065E080E0EA
S11308500E941E05089541E067E081E00E941E05A4
S1130860089541E066E080E00E941E05089541E09D
S113087064E080E00E941E050895813061F028F054
S1130880823079F0833099F0089540E065E080E0AB
S11308900E941E05089540E067E081E00E941E0565
S11308A0089540E066E080E00E941E05089540E05F
S11308B064E080E00E941E0508950E94B701FFCF06
S11308C01F920F920FB60F9211248F939F93EF9361
S11308D0FF93E0919D01F0919E0184B195B19183C4
S11308E08083FF91EF919F918F910F900FBE0F9096
S11308F01F901895FC019181308186B1806886B97A
S113090086B1877F86B927B140E4949FC001112442
S1130910922F9F73892B87B98FEF830F873030F421
S113092086B1887F382B36B981E0089580E0089538
S113093070939E0160939D0197B1907E892B87B936
S113094086B1886086B98FB780688FBF86B18064AE
S113095086B981E00895843008F06FC0683008F0EB
S11309606CC0813001F130F08230B1F1833009F490
S11309704CC00895413059F42AB381E090E002C09C
S1130980880F991F6A95E2F7822B8ABB08952AB3D0
S113099081E090E002C0880F991F6A95E2F7809584
S11309A082238ABB0895413059F427B381E090E053
S11309B002C0880F991F6A95E2F7822B87BB0895BE
S11309C027B381E090E002C0880F991F6A95E2F78F
S11309D08095822387BB0895413059F424B381E084
S11309E090E002C0880F991F6A95E2F7822B84BBBE
S11309F0089524B381E090E002C0880F991F6A959E
S1130A00E2F78095822384BB0895413059F421B3E1
S1130A1081E090E002C0880F991F6A95E2F7822B6B
S1130A2081BB089521B381E090E002C0880F991F33
S1130A306A95E2F78095822381BB0895843008F09B
S1130A406FC0683008F06CC0813001F130F0823042
S1130A50B1F1833009F44CC00895413059F42BB3FB
S1130A6081E090E002C0880F991F6A95E2F7822B1B
S1130A708BBB08952BB381E090E002C0880F991FCF
S1130A806A95E2F7809582238BBB0895413059F42F
S1130A9028B381E090E002C0880F991F6A95E2F7BD
S1130AA0822B88BB089528B381E090E002C0880FB0
S1130AB0991F6A95E2F78095822388BB0895413097
S1130AC059F425B381E090E002C0880F991F6A951C
S1130AD0E2F7822B85BB089525B381E090E002C044
S1130AE0880F991F6A95E2F78095822385BB089544
S1130AF0413059F422B381E090E002C0880F991F7D
S1130B006A95E2F7822B82BB089522B381E090E0DC
S1130B1002C0880F991F6A95E2F78095822382BBF1
S1130B2008958FB780688FBF089583B7877B83BF8D
S1130B3083B783BF83B78F7C83BF83B783BF89B7F2
S1130B40816089BF89B78D7F89BF089583B7887F06
S1130B5083BF83B7856083BF089583B7887F83BFCE
S1130B60089582BF089589B7816089BF0895009769
S1130B7031F090939B0180939A0181E0089580E085
S1130B80089588B7816088BF08951F920F920FB6A9
S1130B900F9211242F933F934F935F936F937F93FF
S1130BA08F939F93AF93BF93EF93FF93E0919A0139
S1130BB0F0919B01309709F00995FF91EF91BF9156
S1130BC0AF919F918F917F916F915F914F913F91E1
S1130BD02F910F900FBE0F901F9018951F920F9298
S1130BE00FB60F9211242F933F934F935F936F93FC
S1130BF07F938F939F93AF93BF93EF93FF93E09172
S1130C009801F0919901309709F00995FF91EF91BE
S1130C10BF91AF919F918F917F916F915F914F9110
S1130C203F912F910F900FBE0F901F901895BB27E7
S1130C304A3031F4992322F4BDE2909581959F4F77
S1130C400C942306BB27FB015527AA27880F991F5D
S1130C50AA1FA41710F0A41B83955051B9F7A05DE7
S1130C60AA3308F0A95DA193009779F7B111B19364
S1130C701192CB010C943C06DC01FC01672F7191AD
S1130C807723E1F7329704C07C916D93708362916E
S10F0C90AE17BF07C8F30895F894FFCF17
S1130C9C4F46462020202000524544204F464620F3
S1130CAC475245454E204F46460052454144592033
S1130CBC202000524544204F4E20475245454E209B
S1130CCC4F46462000524544204F46462047524545
S1130CDC454E204F4E200049474E4954494F4E0033
S1130CEC202020205465616D204D6574615761721C
S1130CFC650020202020657261576174654D206D5C
S1130D0C656154004D61686D6F75642048656C6D48
S1130D1C7920283132383529004D61726B204568B1
S1130D2C616220202020202832303129004D6F6848
S1130D3C616D6564204D61736F75642832303029A0
S1130D4C00596F75736566204B68616C6564202867
S1130D5C353538290048617A7A656D204D6F6861A4
S1130D6C6D6564283132393729002053454954655F
S1130D7C636820536F6C7574696F6E730020202048
S1130D8C20204555492047726F75702033005765F4
S1130D9C6C636F6D652E2E2E005374617274204536
S1130DAC6E67696E65004B4C454D4D45205354415F
S1130DBC544520004B4C454D4D452052414E474522
S1070DCC203D2000A2
S9030000FC
